:100000000C942A000C9447000C9447000C94470071
:100010000C9447000C9447000C9447000C94470044
:100020000C9447000C9449000C9447000C94470032
:100030000C9447000C9447000C9447000C94470024
:100040000C9447000C9447000C9447000C94470014
:100050000C94470011241FBECFE5D4E0DEBFCDBF16
:1000600010E0A0E6B0E0E4E5F2E002C005900D92F9
:10007000A236B107D9F710E0A2E6B0E001C01D92A8
:10008000A336B107E1F70E946F000C9428010C948D
:1000900000001F920F920FB60F9211242F933F93DF
:1000A0004F935F936F937F938F939F93AF93BF9380
:1000B000EF93FF930E94A20080936000FF91EF9165
:1000C000BF91AF919F918F917F916F915F914F9170
:1000D0003F912F910F900FBE0F901F9018950E9487
:1000E00084000E94930084E083BF89B7816089BF48
:1000F00078949091600080916100981721F080E0E1
:100100000E948700F6CFFFCFD69AD69A089588230B
:1001100011F4DF9A0895DE9A0895882311F4DF9888
:100120000895DE980895A798AF9AA698AE9AA598D4
:10013000AD9AA498AC9A889A909A899A919A8A9A38
:10014000929A08959098000080B390E080959095E1
:10015000887790700000909A00009198000040B35A
:100160000000919A00009298000020B350E0409562
:1001700050954877507074E0440F551F7A95E1F719
:1001800030E02095309528773070322F2227422B8F
:10019000532B0000929A482B592B81E0403058078E
:1001A00009F444C081E041305807D0F44031510592
:1001B00009F43EC04131510548F44115510509F497
:1001C00043C04830510509F041C02CC040345105AE
:1001D000C9F14038510521F140325105B9F52EC021
:1001E00088E040305807C1F088E04130580740F4BB
:1001F00082E04030580701F14050544039F50EC0BC
:1002000080E240305807B1F080E440305807C1F038
:1002100040505041D9F408C081E0089580E008952D
:1002200082E0089583E0089584E0089585E00895CC
:1002300086E0089587E0089588E0089589E00895AC
:100240008FE608958EED089584E6089589E7089570
:04025000F894FFCF50
:02025400DEDEEC
:00000001FF
