:100000000C942A000C9447000C9447000C94470071
:100010000C9447000C9447000C9447000C94470044
:100020000C9447000C9447000C9447000C94470034
:100030000C9447000C9447000C9447000C94470024
:100040000C9447000C9447000C9447000C94470014
:100050000C94470011241FBECFE5D4E0DEBFCDBF16
:1000600010E0A0E6B0E0EAE2F1E002C005900D92F7
:10007000A036B107D9F710E0A0E6B0E001C01D92AC
:10008000A036B107E1F70E9449000C9493000C944C
:100090000000EAE3F0E0808180688083EBE3F0E039
:1000A00066EF79E048EC50E08081806880839B01B6
:1000B000CA010197F1F721503040D1F79B01CA01E5
:1000C0000197F1F721503040D1F79B01CA01019708
:1000D000F1F721503040D1F79B01CA010197F1F7A8
:1000E00021503040D1F780818F7780839B01CA01F6
:1000F0000197F1F721503040D1F79B01CA010197D8
:10010000F1F721503040D1F79B01CA010197F1F777
:1001100021503040D1F79B01CA010197F1F72150DE
:0A0120003040D1F7C1CFF894FFCFB3
:00000001FF
